{
  "_format": "hh-sol-artifact-1",
  "contractName": "MemeFactory",
  "sourceName": "contracts/MemeFactory.sol",
  "abi": [
    {
      "inputs": [],
      "stateMutability": "nonpayable",
      "type": "constructor"
    },
    {
      "anonymous": false,
      "inputs": [
        {
          "indexed": true,
          "internalType": "address",
          "name": "token",
          "type": "address"
        },
        {
          "indexed": false,
          "internalType": "uint256",
          "name": "okbLiquidity",
          "type": "uint256"
        },
        {
          "indexed": false,
          "internalType": "uint256",
          "name": "tokenLiquidity",
          "type": "uint256"
        }
      ],
      "name": "DEXListed",
      "type": "event"
    },
    {
      "anonymous": false,
      "inputs": [
        {
          "indexed": true,
          "internalType": "address",
          "name": "tokenAddress",
          "type": "address"
        },
        {
          "indexed": false,
          "internalType": "string",
          "name": "name",
          "type": "string"
        },
        {
          "indexed": false,
          "internalType": "string",
          "name": "symbol",
          "type": "string"
        },
        {
          "indexed": false,
          "internalType": "address",
          "name": "creator",
          "type": "address"
        }
      ],
      "name": "TokenCreated",
      "type": "event"
    },
    {
      "anonymous": false,
      "inputs": [
        {
          "indexed": true,
          "internalType": "address",
          "name": "token",
          "type": "address"
        },
        {
          "indexed": true,
          "internalType": "address",
          "name": "buyer",
          "type": "address"
        },
        {
          "indexed": false,
          "internalType": "uint256",
          "name": "okbAmount",
          "type": "uint256"
        },
        {
          "indexed": false,
          "internalType": "uint256",
          "name": "tokenAmount",
          "type": "uint256"
        }
      ],
      "name": "TokensPurchased",
      "type": "event"
    },
    {
      "anonymous": false,
      "inputs": [
        {
          "indexed": true,
          "internalType": "address",
          "name": "token",
          "type": "address"
        },
        {
          "indexed": true,
          "internalType": "address",
          "name": "seller",
          "type": "address"
        },
        {
          "indexed": false,
          "internalType": "uint256",
          "name": "tokenAmount",
          "type": "uint256"
        },
        {
          "indexed": false,
          "internalType": "uint256",
          "name": "okbAmount",
          "type": "uint256"
        }
      ],
      "name": "TokensSold",
      "type": "event"
    },
    {
      "inputs": [],
      "name": "CREATION_FEE",
      "outputs": [
        {
          "internalType": "uint256",
          "name": "",
          "type": "uint256"
        }
      ],
      "stateMutability": "view",
      "type": "function"
    },
    {
      "inputs": [],
      "name": "DEX_LISTING_FEE",
      "outputs": [
        {
          "internalType": "uint256",
          "name": "",
          "type": "uint256"
        }
      ],
      "stateMutability": "view",
      "type": "function"
    },
    {
      "inputs": [],
      "name": "DEX_TRIGGER_AMOUNT",
      "outputs": [
        {
          "internalType": "uint256",
          "name": "",
          "type": "uint256"
        }
      ],
      "stateMutability": "view",
      "type": "function"
    },
    {
      "inputs": [],
      "name": "INITIAL_SUPPLY",
      "outputs": [
        {
          "internalType": "uint256",
          "name": "",
          "type": "uint256"
        }
      ],
      "stateMutability": "view",
      "type": "function"
    },
    {
      "inputs": [],
      "name": "TRADING_FEE_PERCENT",
      "outputs": [
        {
          "internalType": "uint256",
          "name": "",
          "type": "uint256"
        }
      ],
      "stateMutability": "view",
      "type": "function"
    },
    {
      "inputs": [],
      "name": "accumulatedFees",
      "outputs": [
        {
          "internalType": "uint256",
          "name": "",
          "type": "uint256"
        }
      ],
      "stateMutability": "view",
      "type": "function"
    },
    {
      "inputs": [
        {
          "internalType": "address",
          "name": "tokenAddress",
          "type": "address"
        }
      ],
      "name": "buyTokens",
      "outputs": [],
      "stateMutability": "payable",
      "type": "function"
    },
    {
      "inputs": [
        {
          "internalType": "string",
          "name": "name",
          "type": "string"
        },
        {
          "internalType": "string",
          "name": "symbol",
          "type": "string"
        }
      ],
      "name": "createToken",
      "outputs": [],
      "stateMutability": "payable",
      "type": "function"
    },
    {
      "inputs": [],
      "name": "owner",
      "outputs": [
        {
          "internalType": "address",
          "name": "",
          "type": "address"
        }
      ],
      "stateMutability": "view",
      "type": "function"
    },
    {
      "inputs": [
        {
          "internalType": "address",
          "name": "tokenAddress",
          "type": "address"
        },
        {
          "internalType": "uint256",
          "name": "amount",
          "type": "uint256"
        }
      ],
      "name": "sellTokens",
      "outputs": [],
      "stateMutability": "nonpayable",
      "type": "function"
    },
    {
      "inputs": [
        {
          "internalType": "address",
          "name": "",
          "type": "address"
        }
      ],
      "name": "tokens",
      "outputs": [
        {
          "internalType": "address",
          "name": "tokenAddress",
          "type": "address"
        },
        {
          "internalType": "string",
          "name": "name",
          "type": "string"
        },
        {
          "internalType": "string",
          "name": "symbol",
          "type": "string"
        },
        {
          "internalType": "address",
          "name": "creator",
          "type": "address"
        },
        {
          "internalType": "uint256",
          "name": "totalSupply",
          "type": "uint256"
        },
        {
          "internalType": "bool",
          "name": "isListed",
          "type": "bool"
        },
        {
          "internalType": "uint256",
          "name": "reserve",
          "type": "uint256"
        },
        {
          "internalType": "uint256",
          "name": "volume",
          "type": "uint256"
        }
      ],
      "stateMutability": "view",
      "type": "function"
    },
    {
      "inputs": [
        {
          "internalType": "string",
          "name": "",
          "type": "string"
        }
      ],
      "name": "usedSymbols",
      "outputs": [
        {
          "internalType": "bool",
          "name": "",
          "type": "bool"
        }
      ],
      "stateMutability": "view",
      "type": "function"
    },
    {
      "inputs": [],
      "name": "withdrawFees",
      "outputs": [],
      "stateMutability": "nonpayable",
      "type": "function"
    },
    {
      "stateMutability": "payable",
      "type": "receive"
    }
  ],
  "bytecode": "0x6080604052348015600f57600080fd5b50336000806101000a81548173ffffffffffffffffffffffffffffffffffffffff021916908373ffffffffffffffffffffffffffffffffffffffff160217905550613b9f8061005f6000396000f3fe6080604052600436106100c65760003560e01c8063587f5ed71161007f578063c464fe6511610059578063c464fe6514610244578063e48603391461026d578063ec8ac4d8146102b1578063fa18ebcc146102cd576100cd565b8063587f5ed7146101b15780638da5cb5b146101dc578063bdace7df14610207576100cd565b806306b301d6146100d25780632f2f2d56146100fd5780632ff2e9dc1461011957806331be258914610144578063476343ee1461016f57806349a2104d14610186576100cd565b366100cd57005b600080fd5b3480156100de57600080fd5b506100e76102f8565b6040516100f49190611412565b60405180910390f35b61011760048036038101906101129190611587565b610305565b005b34801561012557600080fd5b5061012e610757565b60405161013b9190611412565b60405180910390f35b34801561015057600080fd5b50610159610767565b6040516101669190611412565b60405180910390f35b34801561017b57600080fd5b50610184610773565b005b34801561019257600080fd5b5061019b61087a565b6040516101a89190611412565b60405180910390f35b3480156101bd57600080fd5b506101c6610885565b6040516101d39190611412565b60405180910390f35b3480156101e857600080fd5b506101f161088b565b6040516101fe9190611640565b60405180910390f35b34801561021357600080fd5b5061022e6004803603810190610229919061165b565b6108af565b60405161023b91906116bf565b60405180910390f35b34801561025057600080fd5b5061026b60048036038101906102669190611732565b6108e5565b005b34801561027957600080fd5b50610294600480360381019061028f9190611772565b610c80565b6040516102a898979695949392919061181e565b60405180910390f35b6102cb60048036038101906102c69190611772565b610e25565b005b3480156102d957600080fd5b506102e26111b1565b6040516102ef9190611412565b60405180910390f35b683c3a38e5ab72fc000081565b66470de4df82000034101561034f576040517f08c379a00000000000000000000000000000000000000000000000000000000081526004016103469061191c565b60405180910390fd5b602082511115610394576040517f08c379a000000000000000000000000000000000000000000000000000000000815260040161038b90611988565b60405180910390fd5b600a815111156103d9576040517f08c379a00000000000000000000000000000000000000000000000000000000081526004016103d0906119f4565b60405180910390fd5b6002816040516103e99190611a50565b908152602001604051809103902060009054906101000a900460ff1615610445576040517f08c379a000000000000000000000000000000000000000000000000000000000815260040161043c90611ab3565b60405180910390fd5b600082826b033b2e3c9fd0803ce800000030604051610463906113ec565b6104709493929190611ad3565b604051809103906000f08015801561048c573d6000803e3d6000fd5b5090506040518061010001604052808273ffffffffffffffffffffffffffffffffffffffff1681526020018481526020018381526020013373ffffffffffffffffffffffffffffffffffffffff1681526020016b033b2e3c9fd0803ce80000008152602001600015158152602001600081526020016000815250600160008373ffffffffffffffffffffffffffffffffffffffff1673ffffffffffffffffffffffffffffffffffffffff16815260200190815260200160002060008201518160000160006101000a81548173ffffffffffffffffffffffffffffffffffffffff021916908373ffffffffffffffffffffffffffffffffffffffff16021790555060208201518160010190816105a19190611d32565b5060408201518160020190816105b79190611d32565b5060608201518160030160006101000a81548173ffffffffffffffffffffffffffffffffffffffff021916908373ffffffffffffffffffffffffffffffffffffffff1602179055506080820151816004015560a08201518160050160006101000a81548160ff02191690831515021790555060c0820151816006015560e0820151816007015590505060016002836040516106529190611a50565b908152602001604051809103902060006101000a81548160ff02191690831515021790555066470de4df820000600360008282546106909190611e33565b9250508190555066470de4df820000341115610700573373ffffffffffffffffffffffffffffffffffffffff166108fc66470de4df820000346106d39190611e67565b9081150290604051600060405180830381858888f193505050501580156106fe573d6000803e3d6000fd5b505b8073ffffffffffffffffffffffffffffffffffffffff167f6596c1670eb3390048d23721809c3da5d3f531375ac0e2cab0f77a808ed6433184843360405161074a93929190611e9b565b60405180910390a2505050565b6b033b2e3c9fd0803ce800000081565b67d02ab486cedc000081565b60008054906101000a900473ffffffffffffffffffffffffffffffffffffffff1673ffffffffffffffffffffffffffffffffffffffff163373ffffffffffffffffffffffffffffffffffffffff1614610801576040517f08c379a00000000000000000000000000000000000000000000000000000000081526004016107f890611f52565b60405180910390fd5b60006003549050600060038190555060008054906101000a900473ffffffffffffffffffffffffffffffffffffffff1673ffffffffffffffffffffffffffffffffffffffff166108fc829081150290604051600060405180830381858888f19350505050158015610876573d6000803e3d6000fd5b5050565b66470de4df82000081565b60035481565b60008054906101000a900473ffffffffffffffffffffffffffffffffffffffff1681565b6002818051602081018201805184825260208301602085012081835280955050505050506000915054906101000a900460ff1681565b6000600160008473ffffffffffffffffffffffffffffffffffffffff1673ffffffffffffffffffffffffffffffffffffffff1681526020019081526020016000209050600073ffffffffffffffffffffffffffffffffffffffff168160000160009054906101000a900473ffffffffffffffffffffffffffffffffffffffff1673ffffffffffffffffffffffffffffffffffffffff16036109bb576040517f08c379a00000000000000000000000000000000000000000000000000000000081526004016109b290611fbe565b60405180910390fd5b8060050160009054906101000a900460ff1615610a0d576040517f08c379a0000000000000000000000000000000000000000000000000000000008152600401610a0490612050565b60405180910390fd5b600073__$e334e81962b2eecc6f134bd3b0bf062756$__63071f85218360060154856040518363ffffffff1660e01b8152600401610a4c92919061207f565b602060405180830381865af4158015610a69573d6000803e3d6000fd5b505050506040513d601f19601f82011682018060405250810190610a8d91906120bd565b905060006064600183610aa091906120ea565b610aaa919061215b565b905060008183610aba9190611e67565b90508573ffffffffffffffffffffffffffffffffffffffff166323b872dd3330886040518463ffffffff1660e01b8152600401610af99392919061218c565b6020604051808303816000875af1158015610b18573d6000803e3d6000fd5b505050506040513d601f19601f82011682018060405250810190610b3c91906121ef565b610b7b576040517f08c379a0000000000000000000000000000000000000000000000000000000008152600401610b7290612268565b60405180910390fd5b80846006016000828254610b8f9190611e67565b9250508190555082846007016000828254610baa9190611e33565b925050819055508160036000828254610bc39190611e33565b925050819055503373ffffffffffffffffffffffffffffffffffffffff166108fc829081150290604051600060405180830381858888f19350505050158015610c10573d6000803e3d6000fd5b503373ffffffffffffffffffffffffffffffffffffffff168673ffffffffffffffffffffffffffffffffffffffff167f697c42d55a5e1fed3f464ec6f38b32546a0bd368dc8068b065c67566d73f32908784604051610c70929190612288565b60405180910390a3505050505050565b60016020528060005260406000206000915090508060000160009054906101000a900473ffffffffffffffffffffffffffffffffffffffff1690806001018054610cc990611b55565b80601f0160208091040260200160405190810160405280929190818152602001828054610cf590611b55565b8015610d425780601f10610d1757610100808354040283529160200191610d42565b820191906000526020600020905b815481529060010190602001808311610d2557829003601f168201915b505050505090806002018054610d5790611b55565b80601f0160208091040260200160405190810160405280929190818152602001828054610d8390611b55565b8015610dd05780601f10610da557610100808354040283529160200191610dd0565b820191906000526020600020905b815481529060010190602001808311610db357829003601f168201915b5050505050908060030160009054906101000a900473ffffffffffffffffffffffffffffffffffffffff16908060040154908060050160009054906101000a900460ff16908060060154908060070154905088565b6000600160008373ffffffffffffffffffffffffffffffffffffffff1673ffffffffffffffffffffffffffffffffffffffff1681526020019081526020016000209050600073ffffffffffffffffffffffffffffffffffffffff168160000160009054906101000a900473ffffffffffffffffffffffffffffffffffffffff1673ffffffffffffffffffffffffffffffffffffffff1603610efb576040517f08c379a0000000000000000000000000000000000000000000000000000000008152600401610ef290611fbe565b60405180910390fd5b8060050160009054906101000a900460ff1615610f4d576040517f08c379a0000000000000000000000000000000000000000000000000000000008152600401610f4490612050565b60405180910390fd5b60006064600134610f5e91906120ea565b610f68919061215b565b905060008134610f789190611e67565b9050600073__$e334e81962b2eecc6f134bd3b0bf062756$__63234e85868560060154846040518363ffffffff1660e01b8152600401610fb992919061207f565b602060405180830381865af4158015610fd6573d6000803e3d6000fd5b505050506040513d601f19601f82011682018060405250810190610ffa91906120bd565b9050818460060160008282546110109190611e33565b925050819055503484600701600082825461102b9190611e33565b9250508190555082600360008282546110449190611e33565b925050819055508473ffffffffffffffffffffffffffffffffffffffff1663a9059cbb33836040518363ffffffff1660e01b81526004016110869291906122b1565b6020604051808303816000875af11580156110a5573d6000803e3d6000fd5b505050506040513d601f19601f820116820180604052508101906110c991906121ef565b611108576040517f08c379a00000000000000000000000000000000000000000000000000000000081526004016110ff90612268565b60405180910390fd5b3373ffffffffffffffffffffffffffffffffffffffff168573ffffffffffffffffffffffffffffffffffffffff167f6faf93231a456e552dbc9961f58d9713ee4f2e69d15f1975b050ef0911053a7b3484604051611167929190612288565b60405180910390a3683c3a38e5ab72fc000084600701541015801561119b57508360050160009054906101000a900460ff16155b156111aa576111a9856111b6565b5b5050505050565b600181565b6000600160008373ffffffffffffffffffffffffffffffffffffffff1673ffffffffffffffffffffffffffffffffffffffff1681526020019081526020016000209050683c3a38e5ab72fc000081600701541015611249576040517f08c379a000000000000000000000000000000000000000000000000000000000815260040161124090612326565b60405180910390fd5b8060050160009054906101000a900460ff161561129b576040517f08c379a000000000000000000000000000000000000000000000000000000000815260040161129290612392565b60405180910390fd5b60006064605083600601546112b091906120ea565b6112ba919061215b565b905060008373ffffffffffffffffffffffffffffffffffffffff166370a08231306040518263ffffffff1660e01b81526004016112f79190611640565b602060405180830381865afa158015611314573d6000803e3d6000fd5b505050506040513d601f19601f8201168201806040525081019061133891906120bd565b90506000606460508361134b91906120ea565b611355919061215b565b905060018460050160006101000a81548160ff02191690831515021790555067d02ab486cedc00006003600082825461138e9190611e33565b925050819055508473ffffffffffffffffffffffffffffffffffffffff167ff90a9d2e6474fd5f4171d576dae38a427009953441a82b26106db350711ad6bd84836040516113dd929190612288565b60405180910390a25050505050565b6117b7806123b383390190565b6000819050919050565b61140c816113f9565b82525050565b60006020820190506114276000830184611403565b92915050565b6000604051905090565b600080fd5b600080fd5b600080fd5b600080fd5b6000601f19601f8301169050919050565b7f4e487b7100000000000000000000000000000000000000000000000000000000600052604160045260246000fd5b6114948261144b565b810181811067ffffffffffffffff821117156114b3576114b261145c565b5b80604052505050565b60006114c661142d565b90506114d2828261148b565b919050565b600067ffffffffffffffff8211156114f2576114f161145c565b5b6114fb8261144b565b9050602081019050919050565b82818337600083830152505050565b600061152a611525846114d7565b6114bc565b90508281526020810184848401111561154657611545611446565b5b611551848285611508565b509392505050565b600082601f83011261156e5761156d611441565b5b813561157e848260208601611517565b91505092915050565b6000806040838503121561159e5761159d611437565b5b600083013567ffffffffffffffff8111156115bc576115bb61143c565b5b6115c885828601611559565b925050602083013567ffffffffffffffff8111156115e9576115e861143c565b5b6115f585828601611559565b9150509250929050565b600073ffffffffffffffffffffffffffffffffffffffff82169050919050565b600061162a826115ff565b9050919050565b61163a8161161f565b82525050565b60006020820190506116556000830184611631565b92915050565b60006020828403121561167157611670611437565b5b600082013567ffffffffffffffff81111561168f5761168e61143c565b5b61169b84828501611559565b91505092915050565b60008115159050919050565b6116b9816116a4565b82525050565b60006020820190506116d460008301846116b0565b92915050565b6116e38161161f565b81146116ee57600080fd5b50565b600081359050611700816116da565b92915050565b61170f816113f9565b811461171a57600080fd5b50565b60008135905061172c81611706565b92915050565b6000806040838503121561174957611748611437565b5b6000611757858286016116f1565b92505060206117688582860161171d565b9150509250929050565b60006020828403121561178857611787611437565b5b6000611796848285016116f1565b91505092915050565b600081519050919050565b600082825260208201905092915050565b60005b838110156117d95780820151818401526020810190506117be565b60008484015250505050565b60006117f08261179f565b6117fa81856117aa565b935061180a8185602086016117bb565b6118138161144b565b840191505092915050565b600061010082019050611834600083018b611631565b8181036020830152611846818a6117e5565b9050818103604083015261185a81896117e5565b90506118696060830188611631565b6118766080830187611403565b61188360a08301866116b0565b61189060c0830185611403565b61189d60e0830184611403565b9998505050505050505050565b7f4d656d65466163746f72793a20696e73756666696369656e742063726561746960008201527f6f6e206665650000000000000000000000000000000000000000000000000000602082015250565b60006119066026836117aa565b9150611911826118aa565b604082019050919050565b60006020820190508181036000830152611935816118f9565b9050919050565b7f4d656d65466163746f72793a206e616d6520746f6f206c6f6e67000000000000600082015250565b6000611972601a836117aa565b915061197d8261193c565b602082019050919050565b600060208201905081810360008301526119a181611965565b9050919050565b7f4d656d65466163746f72793a2073796d626f6c20746f6f206c6f6e6700000000600082015250565b60006119de601c836117aa565b91506119e9826119a8565b602082019050919050565b60006020820190508181036000830152611a0d816119d1565b9050919050565b600081905092915050565b6000611a2a8261179f565b611a348185611a14565b9350611a448185602086016117bb565b80840191505092915050565b6000611a5c8284611a1f565b915081905092915050565b7f4d656d65466163746f72793a2073796d626f6c20616c72656164792075736564600082015250565b6000611a9d6020836117aa565b9150611aa882611a67565b602082019050919050565b60006020820190508181036000830152611acc81611a90565b9050919050565b60006080820190508181036000830152611aed81876117e5565b90508181036020830152611b0181866117e5565b9050611b106040830185611403565b611b1d6060830184611631565b95945050505050565b7f4e487b7100000000000000000000000000000000000000000000000000000000600052602260045260246000fd5b60006002820490506001821680611b6d57607f821691505b602082108103611b8057611b7f611b26565b5b50919050565b60008190508160005260206000209050919050565b60006020601f8301049050919050565b600082821b905092915050565b600060088302611be87fffffffffffffffffffffffffffffffffffffffffffffffffffffffffffffffff82611bab565b611bf28683611bab565b95508019841693508086168417925050509392505050565b6000819050919050565b6000611c2f611c2a611c25846113f9565b611c0a565b6113f9565b9050919050565b6000819050919050565b611c4983611c14565b611c5d611c5582611c36565b848454611bb8565b825550505050565b600090565b611c72611c65565b611c7d818484611c40565b505050565b5b81811015611ca157611c96600082611c6a565b600181019050611c83565b5050565b601f821115611ce657611cb781611b86565b611cc084611b9b565b81016020851015611ccf578190505b611ce3611cdb85611b9b565b830182611c82565b50505b505050565b600082821c905092915050565b6000611d0960001984600802611ceb565b1980831691505092915050565b6000611d228383611cf8565b9150826002028217905092915050565b611d3b8261179f565b67ffffffffffffffff811115611d5457611d5361145c565b5b611d5e8254611b55565b611d69828285611ca5565b600060209050601f831160018114611d9c5760008415611d8a578287015190505b611d948582611d16565b865550611dfc565b601f198416611daa86611b86565b60005b82811015611dd257848901518255600182019150602085019450602081019050611dad565b86831015611def5784890151611deb601f891682611cf8565b8355505b6001600288020188555050505b505050505050565b7f4e487b7100000000000000000000000000000000000000000000000000000000600052601160045260246000fd5b6000611e3e826113f9565b9150611e49836113f9565b9250828201905080821115611e6157611e60611e04565b5b92915050565b6000611e72826113f9565b9150611e7d836113f9565b9250828203905081811115611e9557611e94611e04565b5b92915050565b60006060820190508181036000830152611eb581866117e5565b90508181036020830152611ec981856117e5565b9050611ed86040830184611631565b949350505050565b7f4d656d65466163746f72793a2063616c6c6572206973206e6f7420746865206f60008201527f776e657200000000000000000000000000000000000000000000000000000000602082015250565b6000611f3c6024836117aa565b9150611f4782611ee0565b604082019050919050565b60006020820190508181036000830152611f6b81611f2f565b9050919050565b7f4d656d65466163746f72793a20746f6b656e206e6f7420666f756e6400000000600082015250565b6000611fa8601c836117aa565b9150611fb382611f72565b602082019050919050565b60006020820190508181036000830152611fd781611f9b565b9050919050565b7f4d656d65466163746f72793a20746f6b656e20616c7265616479206c6973746560008201527f64206f6e20444558000000000000000000000000000000000000000000000000602082015250565b600061203a6028836117aa565b915061204582611fde565b604082019050919050565b600060208201905081810360008301526120698161202d565b9050919050565b612079816113f9565b82525050565b60006040820190506120946000830185612070565b6120a16020830184612070565b9392505050565b6000815190506120b781611706565b92915050565b6000602082840312156120d3576120d2611437565b5b60006120e1848285016120a8565b91505092915050565b60006120f5826113f9565b9150612100836113f9565b925082820261210e816113f9565b9150828204841483151761212557612124611e04565b5b5092915050565b7f4e487b7100000000000000000000000000000000000000000000000000000000600052601260045260246000fd5b6000612166826113f9565b9150612171836113f9565b9250826121815761218061212c565b5b828204905092915050565b60006060820190506121a16000830186611631565b6121ae6020830185611631565b6121bb6040830184611403565b949350505050565b6121cc816116a4565b81146121d757600080fd5b50565b6000815190506121e9816121c3565b92915050565b60006020828403121561220557612204611437565b5b6000612213848285016121da565b91505092915050565b7f4d656d65466163746f72793a207472616e73666572206661696c656400000000600082015250565b6000612252601c836117aa565b915061225d8261221c565b602082019050919050565b6000602082019050818103600083015261228181612245565b9050919050565b600060408201905061229d6000830185611403565b6122aa6020830184611403565b9392505050565b60006040820190506122c66000830185611631565b6122d36020830184611403565b9392505050565b7f4d656d65466163746f72793a20696e73756666696369656e7420766f6c756d65600082015250565b60006123106020836117aa565b915061231b826122da565b602082019050919050565b6000602082019050818103600083015261233f81612303565b9050919050565b7f4d656d65466163746f72793a20616c7265616479206c69737465640000000000600082015250565b600061237c601b836117aa565b915061238782612346565b602082019050919050565b600060208201905081810360008301526123ab8161236f565b905091905056fe608060405234801561001057600080fd5b506040516117b73803806117b783398181016040528101906100329190610356565b8360009081610041919061060c565b508260019081610051919061060c565b508160028190555080600360006101000a81548173ffffffffffffffffffffffffffffffffffffffff021916908373ffffffffffffffffffffffffffffffffffffffff16021790555081600460008373ffffffffffffffffffffffffffffffffffffffff1673ffffffffffffffffffffffffffffffffffffffff168152602001908152602001600020819055508073ffffffffffffffffffffffffffffffffffffffff16600073ffffffffffffffffffffffffffffffffffffffff167fddf252ad1be2c89b69c2b068fc378daa952ba7f163c4a11628f55a4df523b3ef8460405161013c91906106ed565b60405180910390a350505050610708565b6000604051905090565b600080fd5b600080fd5b600080fd5b600080fd5b6000601f19601f8301169050919050565b7f4e487b7100000000000000000000000000000000000000000000000000000000600052604160045260246000fd5b6101b48261016b565b810181811067ffffffffffffffff821117156101d3576101d261017c565b5b80604052505050565b60006101e661014d565b90506101f282826101ab565b919050565b600067ffffffffffffffff8211156102125761021161017c565b5b61021b8261016b565b9050602081019050919050565b60005b8381101561024657808201518184015260208101905061022b565b60008484015250505050565b6000610265610260846101f7565b6101dc565b90508281526020810184848401111561028157610280610166565b5b61028c848285610228565b509392505050565b600082601f8301126102a9576102a8610161565b5b81516102b9848260208601610252565b91505092915050565b6000819050919050565b6102d5816102c2565b81146102e057600080fd5b50565b6000815190506102f2816102cc565b92915050565b600073ffffffffffffffffffffffffffffffffffffffff82169050919050565b6000610323826102f8565b9050919050565b61033381610318565b811461033e57600080fd5b50565b6000815190506103508161032a565b92915050565b600080600080608085870312156103705761036f610157565b5b600085015167ffffffffffffffff81111561038e5761038d61015c565b5b61039a87828801610294565b945050602085015167ffffffffffffffff8111156103bb576103ba61015c565b5b6103c787828801610294565b93505060406103d8878288016102e3565b92505060606103e987828801610341565b91505092959194509250565b600081519050919050565b7f4e487b7100000000000000000000000000000000000000000000000000000000600052602260045260246000fd5b6000600282049050600182168061044757607f821691505b60208210810361045a57610459610400565b5b50919050565b60008190508160005260206000209050919050565b60006020601f8301049050919050565b600082821b905092915050565b6000600883026104c27fffffffffffffffffffffffffffffffffffffffffffffffffffffffffffffffff82610485565b6104cc8683610485565b95508019841693508086168417925050509392505050565b6000819050919050565b60006105096105046104ff846102c2565b6104e4565b6102c2565b9050919050565b6000819050919050565b610523836104ee565b61053761052f82610510565b848454610492565b825550505050565b600090565b61054c61053f565b61055781848461051a565b505050565b5b8181101561057b57610570600082610544565b60018101905061055d565b5050565b601f8211156105c05761059181610460565b61059a84610475565b810160208510156105a9578190505b6105bd6105b585610475565b83018261055c565b50505b505050565b600082821c905092915050565b60006105e3600019846008026105c5565b1980831691505092915050565b60006105fc83836105d2565b9150826002028217905092915050565b610615826103f5565b67ffffffffffffffff81111561062e5761062d61017c565b5b610638825461042f565b61064382828561057f565b600060209050601f8311600181146106765760008415610664578287015190505b61066e85826105f0565b8655506106d6565b601f19841661068486610460565b60005b828110156106ac57848901518255600182019150602085019450602081019050610687565b868310156106c957848901516106c5601f8916826105d2565b8355505b6001600288020188555050505b505050505050565b6106e7816102c2565b82525050565b600060208201905061070260008301846106de565b92915050565b6110a0806107176000396000f3fe608060405234801561001057600080fd5b50600436106100935760003560e01c8063313ce56711610066578063313ce5671461013457806370a082311461015257806395d89b4114610182578063a9059cbb146101a0578063dd62ed3e146101d057610093565b806306fdde0314610098578063095ea7b3146100b657806318160ddd146100e657806323b872dd14610104575b600080fd5b6100a0610200565b6040516100ad9190610a4c565b60405180910390f35b6100d060048036038101906100cb9190610b07565b610292565b6040516100dd9190610b62565b60405180910390f35b6100ee6102a9565b6040516100fb9190610b8c565b60405180910390f35b61011e60048036038101906101199190610ba7565b6102b3565b60405161012b9190610b62565b60405180910390f35b61013c61039d565b6040516101499190610c16565b60405180910390f35b61016c60048036038101906101679190610c31565b6103a6565b6040516101799190610b8c565b60405180910390f35b61018a6103ef565b6040516101979190610a4c565b60405180910390f35b6101ba60048036038101906101b59190610b07565b610481565b6040516101c79190610b62565b60405180910390f35b6101ea60048036038101906101e59190610c5e565b610498565b6040516101f79190610b8c565b60405180910390f35b60606000805461020f90610ccd565b80601f016020809104026020016040519081016040528092919081815260200182805461023b90610ccd565b80156102885780601f1061025d57610100808354040283529160200191610288565b820191906000526020600020905b81548152906001019060200180831161026b57829003601f168201915b5050505050905090565b600061029f33848461051f565b6001905092915050565b6000600254905090565b60006102c08484846106e8565b6000600560008673ffffffffffffffffffffffffffffffffffffffff1673ffffffffffffffffffffffffffffffffffffffff16815260200190815260200160002060003373ffffffffffffffffffffffffffffffffffffffff1673ffffffffffffffffffffffffffffffffffffffff16815260200190815260200160002054905082811015610384576040517f08c379a000000000000000000000000000000000000000000000000000000000815260040161037b90610d70565b60405180910390fd5b610391853385840361051f565b60019150509392505050565b60006012905090565b6000600460008373ffffffffffffffffffffffffffffffffffffffff1673ffffffffffffffffffffffffffffffffffffffff168152602001908152602001600020549050919050565b6060600180546103fe90610ccd565b80601f016020809104026020016040519081016040528092919081815260200182805461042a90610ccd565b80156104775780601f1061044c57610100808354040283529160200191610477565b820191906000526020600020905b81548152906001019060200180831161045a57829003601f168201915b5050505050905090565b600061048e3384846106e8565b6001905092915050565b6000600560008473ffffffffffffffffffffffffffffffffffffffff1673ffffffffffffffffffffffffffffffffffffffff16815260200190815260200160002060008373ffffffffffffffffffffffffffffffffffffffff1673ffffffffffffffffffffffffffffffffffffffff16815260200190815260200160002054905092915050565b600073ffffffffffffffffffffffffffffffffffffffff168373ffffffffffffffffffffffffffffffffffffffff160361058e576040517f08c379a000000000000000000000000000000000000000000000000000000000815260040161058590610e02565b60405180910390fd5b600073ffffffffffffffffffffffffffffffffffffffff168273ffffffffffffffffffffffffffffffffffffffff16036105fd576040517f08c379a00000000000000000000000000000000000000000000000000000000081526004016105f490610e94565b60405180910390fd5b80600560008573ffffffffffffffffffffffffffffffffffffffff1673ffffffffffffffffffffffffffffffffffffffff16815260200190815260200160002060008473ffffffffffffffffffffffffffffffffffffffff1673ffffffffffffffffffffffffffffffffffffffff168152602001908152602001600020819055508173ffffffffffffffffffffffffffffffffffffffff168373ffffffffffffffffffffffffffffffffffffffff167f8c5be1e5ebec7d5bd14f71427d1e84f3dd0314c0f7b2291e5b200ac8c7c3b925836040516106db9190610b8c565b60405180910390a3505050565b600073ffffffffffffffffffffffffffffffffffffffff168373ffffffffffffffffffffffffffffffffffffffff1603610757576040517f08c379a000000000000000000000000000000000000000000000000000000000815260040161074e90610f26565b60405180910390fd5b600073ffffffffffffffffffffffffffffffffffffffff168273ffffffffffffffffffffffffffffffffffffffff16036107c6576040517f08c379a00000000000000000000000000000000000000000000000000000000081526004016107bd90610fb8565b60405180910390fd5b80600460008573ffffffffffffffffffffffffffffffffffffffff1673ffffffffffffffffffffffffffffffffffffffff168152602001908152602001600020541015610848576040517f08c379a000000000000000000000000000000000000000000000000000000000815260040161083f9061104a565b60405180910390fd5b80600460008573ffffffffffffffffffffffffffffffffffffffff1673ffffffffffffffffffffffffffffffffffffffff1681526020019081526020016000205403600460008573ffffffffffffffffffffffffffffffffffffffff1673ffffffffffffffffffffffffffffffffffffffff1681526020019081526020016000208190555080600460008473ffffffffffffffffffffffffffffffffffffffff1673ffffffffffffffffffffffffffffffffffffffff1681526020019081526020016000205401600460008473ffffffffffffffffffffffffffffffffffffffff1673ffffffffffffffffffffffffffffffffffffffff168152602001908152602001600020819055508173ffffffffffffffffffffffffffffffffffffffff168373ffffffffffffffffffffffffffffffffffffffff167fddf252ad1be2c89b69c2b068fc378daa952ba7f163c4a11628f55a4df523b3ef836040516109af9190610b8c565b60405180910390a3505050565b600081519050919050565b600082825260208201905092915050565b60005b838110156109f65780820151818401526020810190506109db565b60008484015250505050565b6000601f19601f8301169050919050565b6000610a1e826109bc565b610a2881856109c7565b9350610a388185602086016109d8565b610a4181610a02565b840191505092915050565b60006020820190508181036000830152610a668184610a13565b905092915050565b600080fd5b600073ffffffffffffffffffffffffffffffffffffffff82169050919050565b6000610a9e82610a73565b9050919050565b610aae81610a93565b8114610ab957600080fd5b50565b600081359050610acb81610aa5565b92915050565b6000819050919050565b610ae481610ad1565b8114610aef57600080fd5b50565b600081359050610b0181610adb565b92915050565b60008060408385031215610b1e57610b1d610a6e565b5b6000610b2c85828601610abc565b9250506020610b3d85828601610af2565b9150509250929050565b60008115159050919050565b610b5c81610b47565b82525050565b6000602082019050610b776000830184610b53565b92915050565b610b8681610ad1565b82525050565b6000602082019050610ba16000830184610b7d565b92915050565b600080600060608486031215610bc057610bbf610a6e565b5b6000610bce86828701610abc565b9350506020610bdf86828701610abc565b9250506040610bf086828701610af2565b9150509250925092565b600060ff82169050919050565b610c1081610bfa565b82525050565b6000602082019050610c2b6000830184610c07565b92915050565b600060208284031215610c4757610c46610a6e565b5b6000610c5584828501610abc565b91505092915050565b60008060408385031215610c7557610c74610a6e565b5b6000610c8385828601610abc565b9250506020610c9485828601610abc565b9150509250929050565b7f4e487b7100000000000000000000000000000000000000000000000000000000600052602260045260246000fd5b60006002820490506001821680610ce557607f821691505b602082108103610cf857610cf7610c9e565b5b50919050565b7f45524332303a207472616e7366657220616d6f756e742065786365656473206160008201527f6c6c6f77616e6365000000000000000000000000000000000000000000000000602082015250565b6000610d5a6028836109c7565b9150610d6582610cfe565b604082019050919050565b60006020820190508181036000830152610d8981610d4d565b9050919050565b7f45524332303a20617070726f76652066726f6d20746865207a65726f2061646460008201527f7265737300000000000000000000000000000000000000000000000000000000602082015250565b6000610dec6024836109c7565b9150610df782610d90565b604082019050919050565b60006020820190508181036000830152610e1b81610ddf565b9050919050565b7f45524332303a20617070726f766520746f20746865207a65726f20616464726560008201527f7373000000000000000000000000000000000000000000000000000000000000602082015250565b6000610e7e6022836109c7565b9150610e8982610e22565b604082019050919050565b60006020820190508181036000830152610ead81610e71565b9050919050565b7f45524332303a207472616e736665722066726f6d20746865207a65726f20616460008201527f6472657373000000000000000000000000000000000000000000000000000000602082015250565b6000610f106025836109c7565b9150610f1b82610eb4565b604082019050919050565b60006020820190508181036000830152610f3f81610f03565b9050919050565b7f45524332303a207472616e7366657220746f20746865207a65726f206164647260008201527f6573730000000000000000000000000000000000000000000000000000000000602082015250565b6000610fa26023836109c7565b9150610fad82610f46565b604082019050919050565b60006020820190508181036000830152610fd181610f95565b9050919050565b7f45524332303a207472616e7366657220616d6f756e742065786365656473206260008201527f616c616e63650000000000000000000000000000000000000000000000000000602082015250565b60006110346026836109c7565b915061103f82610fd8565b604082019050919050565b6000602082019050818103600083015261106381611027565b905091905056fea26469706673582212207656b3aeb7a9a8fedb425c107e8eaad7dc3c90a4bdd7a868f83998b70808f63e64736f6c634300081c0033a2646970667358221220159d7ce51479e8d16199edd2aea3bccc2e98e69e82fe8a3808fd39632215d48b64736f6c634300081c0033",
  "linkReferences": {
    "contracts/BondingCurve.sol": {
      "BondingCurve": [
        {
          "length": 20,
          "start": 2672
        },
        {
          "length": 20,
          "start": 4061
        }
      ]
    }
  },
  "deployedLinkReferences": {
    "contracts/BondingCurve.sol": {
      "BondingCurve": [
        {
          "length": 20,
          "start": 2577
        },
        {
          "length": 20,
          "start": 3966
        }
      ]
    }
  }
}